{
  "_format": "hh-sol-artifact-1",
  "contractName": "Domains",
  "sourceName": "contracts/Domains.sol",
  "abi": [
    {
      "inputs": [
        {
          "internalType": "string",
          "name": "_tld",
          "type": "string"
        }
      ],
      "stateMutability": "payable",
      "type": "constructor"
    },
    {
      "inputs": [],
      "name": "AlreadyRegistered",
      "type": "error"
    },
    {
      "inputs": [
        {
          "internalType": "string",
          "name": "name",
          "type": "string"
        }
      ],
      "name": "InvalidName",
      "type": "error"
    },
    {
      "inputs": [],
      "name": "Unauthorized",
      "type": "error"
    },
    {
      "anonymous": false,
      "inputs": [
        {
          "indexed": true,
          "internalType": "address",
          "name": "owner",
          "type": "address"
        },
        {
          "indexed": true,
          "internalType": "address",
          "name": "approved",
          "type": "address"
        },
        {
          "indexed": true,
          "internalType": "uint256",
          "name": "tokenId",
          "type": "uint256"
        }
      ],
      "name": "Approval",
      "type": "event"
    },
    {
      "anonymous": false,
      "inputs": [
        {
          "indexed": true,
          "internalType": "address",
          "name": "owner",
          "type": "address"
        },
        {
          "indexed": true,
          "internalType": "address",
          "name": "operator",
          "type": "address"
        },
        {
          "indexed": false,
          "internalType": "bool",
          "name": "approved",
          "type": "bool"
        }
      ],
      "name": "ApprovalForAll",
      "type": "event"
    },
    {
      "anonymous": false,
      "inputs": [
        {
          "indexed": true,
          "internalType": "address",
          "name": "from",
          "type": "address"
        },
        {
          "indexed": true,
          "internalType": "address",
          "name": "to",
          "type": "address"
        },
        {
          "indexed": true,
          "internalType": "uint256",
          "name": "tokenId",
          "type": "uint256"
        }
      ],
      "name": "Transfer",
      "type": "event"
    },
    {
      "inputs": [
        {
          "internalType": "address",
          "name": "to",
          "type": "address"
        },
        {
          "internalType": "uint256",
          "name": "tokenId",
          "type": "uint256"
        }
      ],
      "name": "approve",
      "outputs": [],
      "stateMutability": "nonpayable",
      "type": "function"
    },
    {
      "inputs": [
        {
          "internalType": "address",
          "name": "owner",
          "type": "address"
        }
      ],
      "name": "balanceOf",
      "outputs": [
        {
          "internalType": "uint256",
          "name": "",
          "type": "uint256"
        }
      ],
      "stateMutability": "view",
      "type": "function"
    },
    {
      "inputs": [
        {
          "internalType": "string",
          "name": "",
          "type": "string"
        }
      ],
      "name": "domains",
      "outputs": [
        {
          "internalType": "address",
          "name": "",
          "type": "address"
        }
      ],
      "stateMutability": "view",
      "type": "function"
    },
    {
      "inputs": [
        {
          "internalType": "string",
          "name": "name",
          "type": "string"
        }
      ],
      "name": "getAddress",
      "outputs": [
        {
          "internalType": "address",
          "name": "",
          "type": "address"
        }
      ],
      "stateMutability": "view",
      "type": "function"
    },
    {
      "inputs": [],
      "name": "getAllNames",
      "outputs": [
        {
          "internalType": "string[]",
          "name": "",
          "type": "string[]"
        }
      ],
      "stateMutability": "view",
      "type": "function"
    },
    {
      "inputs": [
        {
          "internalType": "uint256",
          "name": "tokenId",
          "type": "uint256"
        }
      ],
      "name": "getApproved",
      "outputs": [
        {
          "internalType": "address",
          "name": "",
          "type": "address"
        }
      ],
      "stateMutability": "view",
      "type": "function"
    },
    {
      "inputs": [
        {
          "internalType": "string",
          "name": "name",
          "type": "string"
        }
      ],
      "name": "getRecord",
      "outputs": [
        {
          "internalType": "string",
          "name": "",
          "type": "string"
        }
      ],
      "stateMutability": "view",
      "type": "function"
    },
    {
      "inputs": [
        {
          "internalType": "address",
          "name": "owner",
          "type": "address"
        },
        {
          "internalType": "address",
          "name": "operator",
          "type": "address"
        }
      ],
      "name": "isApprovedForAll",
      "outputs": [
        {
          "internalType": "bool",
          "name": "",
          "type": "bool"
        }
      ],
      "stateMutability": "view",
      "type": "function"
    },
    {
      "inputs": [],
      "name": "isOwner",
      "outputs": [
        {
          "internalType": "bool",
          "name": "",
          "type": "bool"
        }
      ],
      "stateMutability": "view",
      "type": "function"
    },
    {
      "inputs": [],
      "name": "name",
      "outputs": [
        {
          "internalType": "string",
          "name": "",
          "type": "string"
        }
      ],
      "stateMutability": "view",
      "type": "function"
    },
    {
      "inputs": [
        {
          "internalType": "uint256",
          "name": "",
          "type": "uint256"
        }
      ],
      "name": "names",
      "outputs": [
        {
          "internalType": "string",
          "name": "",
          "type": "string"
        }
      ],
      "stateMutability": "view",
      "type": "function"
    },
    {
      "inputs": [],
      "name": "owner",
      "outputs": [
        {
          "internalType": "address payable",
          "name": "",
          "type": "address"
        }
      ],
      "stateMutability": "view",
      "type": "function"
    },
    {
      "inputs": [
        {
          "internalType": "uint256",
          "name": "tokenId",
          "type": "uint256"
        }
      ],
      "name": "ownerOf",
      "outputs": [
        {
          "internalType": "address",
          "name": "",
          "type": "address"
        }
      ],
      "stateMutability": "view",
      "type": "function"
    },
    {
      "inputs": [
        {
          "internalType": "string",
          "name": "name",
          "type": "string"
        }
      ],
      "name": "price",
      "outputs": [
        {
          "internalType": "uint256",
          "name": "",
          "type": "uint256"
        }
      ],
      "stateMutability": "view",
      "type": "function"
    },
    {
      "inputs": [
        {
          "internalType": "string",
          "name": "",
          "type": "string"
        }
      ],
      "name": "records",
      "outputs": [
        {
          "internalType": "string",
          "name": "",
          "type": "string"
        }
      ],
      "stateMutability": "view",
      "type": "function"
    },
    {
      "inputs": [
        {
          "internalType": "string",
          "name": "name",
          "type": "string"
        }
      ],
      "name": "register",
      "outputs": [],
      "stateMutability": "payable",
      "type": "function"
    },
    {
      "inputs": [
        {
          "internalType": "address",
          "name": "from",
          "type": "address"
        },
        {
          "internalType": "address",
          "name": "to",
          "type": "address"
        },
        {
          "internalType": "uint256",
          "name": "tokenId",
          "type": "uint256"
        }
      ],
      "name": "safeTransferFrom",
      "outputs": [],
      "stateMutability": "nonpayable",
      "type": "function"
    },
    {
      "inputs": [
        {
          "internalType": "address",
          "name": "from",
          "type": "address"
        },
        {
          "internalType": "address",
          "name": "to",
          "type": "address"
        },
        {
          "internalType": "uint256",
          "name": "tokenId",
          "type": "uint256"
        },
        {
          "internalType": "bytes",
          "name": "_data",
          "type": "bytes"
        }
      ],
      "name": "safeTransferFrom",
      "outputs": [],
      "stateMutability": "nonpayable",
      "type": "function"
    },
    {
      "inputs": [
        {
          "internalType": "address",
          "name": "operator",
          "type": "address"
        },
        {
          "internalType": "bool",
          "name": "approved",
          "type": "bool"
        }
      ],
      "name": "setApprovalForAll",
      "outputs": [],
      "stateMutability": "nonpayable",
      "type": "function"
    },
    {
      "inputs": [
        {
          "internalType": "string",
          "name": "name",
          "type": "string"
        },
        {
          "internalType": "string",
          "name": "record",
          "type": "string"
        }
      ],
      "name": "setRecord",
      "outputs": [],
      "stateMutability": "nonpayable",
      "type": "function"
    },
    {
      "inputs": [
        {
          "internalType": "bytes4",
          "name": "interfaceId",
          "type": "bytes4"
        }
      ],
      "name": "supportsInterface",
      "outputs": [
        {
          "internalType": "bool",
          "name": "",
          "type": "bool"
        }
      ],
      "stateMutability": "view",
      "type": "function"
    },
    {
      "inputs": [],
      "name": "symbol",
      "outputs": [
        {
          "internalType": "string",
          "name": "",
          "type": "string"
        }
      ],
      "stateMutability": "view",
      "type": "function"
    },
    {
      "inputs": [],
      "name": "tld",
      "outputs": [
        {
          "internalType": "string",
          "name": "",
          "type": "string"
        }
      ],
      "stateMutability": "view",
      "type": "function"
    },
    {
      "inputs": [
        {
          "internalType": "uint256",
          "name": "tokenId",
          "type": "uint256"
        }
      ],
      "name": "tokenURI",
      "outputs": [
        {
          "internalType": "string",
          "name": "",
          "type": "string"
        }
      ],
      "stateMutability": "view",
      "type": "function"
    },
    {
      "inputs": [
        {
          "internalType": "address",
          "name": "from",
          "type": "address"
        },
        {
          "internalType": "address",
          "name": "to",
          "type": "address"
        },
        {
          "internalType": "uint256",
          "name": "tokenId",
          "type": "uint256"
        }
      ],
      "name": "transferFrom",
      "outputs": [],
      "stateMutability": "nonpayable",
      "type": "function"
    },
    {
      "inputs": [
        {
          "internalType": "string",
          "name": "name",
          "type": "string"
        }
      ],
      "name": "valid",
      "outputs": [
        {
          "internalType": "bool",
          "name": "",
          "type": "bool"
        }
      ],
      "stateMutability": "pure",
      "type": "function"
    },
    {
      "inputs": [],
      "name": "withdraw",
      "outputs": [],
      "stateMutability": "nonpayable",
      "type": "function"
    }
  ],
  "bytecode": "0x608060405260405180610880016040528061085a81526020016200557261085a91396009908051906020019062000038929190620002c8565b506040518060400160405280600d81526020017f3c2f746578743e3c2f7376673e00000000000000000000000000000000000000815250600a908051906020019062000086929190620002c8565b5060405162005dcc38038062005dcc8339818101604052810190620000ac919062000515565b6040518060400160405280601081526020017f43617420446f6d61696e204e616d6573000000000000000000000000000000008152506040518060400160405280600381526020017f43444e0000000000000000000000000000000000000000000000000000000000815250816000908051906020019062000130929190620002c8565b50806001908051906020019062000149929190620002c8565b50505033600e60006101000a81548173ffffffffffffffffffffffffffffffffffffffff021916908373ffffffffffffffffffffffffffffffffffffffff1602179055508060089080519060200190620001a5929190620002c8565b50620001f26040518060400160405280601781526020017f2573206e616d652073657276696365206465706c79656400000000000000000081525082620001f960201b62001c881760201c565b5062000663565b6200029b828260405160240162000212929190620005c3565b6040516020818303038152906040527f4b5c4277000000000000000000000000000000000000000000000000000000007bffffffffffffffffffffffffffffffffffffffffffffffffffffffff19166020820180517bffffffffffffffffffffffffffffffffffffffffffffffffffffffff83818316178352505050506200029f60201b60201c565b5050565b60008151905060006a636f6e736f6c652e6c6f679050602083016000808483855afa5050505050565b828054620002d6906200062d565b90600052602060002090601f016020900481019282620002fa576000855562000346565b82601f106200031557805160ff191683800117855562000346565b8280016001018555821562000346579182015b828111156200034557825182559160200191906001019062000328565b5b50905062000355919062000359565b5090565b5b80821115620003745760008160009055506001016200035a565b5090565b6000604051905090565b600080fd5b600080fd5b600080fd5b600080fd5b6000601f19601f8301169050919050565b7f4e487b7100000000000000000000000000000000000000000000000000000000600052604160045260246000fd5b620003e18262000396565b810181811067ffffffffffffffff82111715620004035762000402620003a7565b5b80604052505050565b60006200041862000378565b9050620004268282620003d6565b919050565b600067ffffffffffffffff821115620004495762000448620003a7565b5b620004548262000396565b9050602081019050919050565b60005b838110156200048157808201518184015260208101905062000464565b8381111562000491576000848401525b50505050565b6000620004ae620004a8846200042b565b6200040c565b905082815260208101848484011115620004cd57620004cc62000391565b5b620004da84828562000461565b509392505050565b600082601f830112620004fa57620004f96200038c565b5b81516200050c84826020860162000497565b91505092915050565b6000602082840312156200052e576200052d62000382565b5b600082015167ffffffffffffffff8111156200054f576200054e62000387565b5b6200055d84828501620004e2565b91505092915050565b600081519050919050565b600082825260208201905092915050565b60006200058f8262000566565b6200059b818562000571565b9350620005ad81856020860162000461565b620005b88162000396565b840191505092915050565b60006040820190508181036000830152620005df818562000582565b90508181036020830152620005f5818462000582565b90509392505050565b7f4e487b7100000000000000000000000000000000000000000000000000000000600052602260045260246000fd5b600060028204905060018216806200064657607f821691505b602082108114156200065d576200065c620005fe565b5b50919050565b614eff80620006736000396000f3fe60806040526004361061019c5760003560e01c806370a08231116100ec578063bf40fac11161008a578063e985e9c511610064578063e985e9c514610624578063f2c298be14610661578063fb825e5f1461067d578063fe2c6198146106a85761019c565b8063bf40fac114610581578063c1880a98146105be578063c87b56dd146105e75761019c565b806395d89b41116100c657806395d89b41146104c75780639791c097146104f2578063a22cb4651461052f578063b88d4fde146105585761019c565b806370a08231146104345780638da5cb5b146104715780638f32d59b1461049c5761019c565b8063264492351161015957806342842e0e1161013357806342842e0e146103545780634622ab031461037d578063541e771d146103ba5780636352211e146103f75761019c565b806326449235146102d55780632d551432146103125780633ccfd60b1461033d5761019c565b806301ffc9a7146101a157806306fdde03146101de578063081812fc14610209578063095ea7b31461024657806311dd88451461026f57806323b872dd146102ac575b600080fd5b3480156101ad57600080fd5b506101c860048036038101906101c391906132a5565b6106e5565b6040516101d591906132ed565b60405180910390f35b3480156101ea57600080fd5b506101f36107c7565b60405161020091906133a1565b60405180910390f35b34801561021557600080fd5b50610230600480360381019061022b91906133f9565b610859565b60405161023d9190613467565b60405180910390f35b34801561025257600080fd5b5061026d600480360381019061026891906134ae565b6108de565b005b34801561027b57600080fd5b5061029660048036038101906102919190613553565b6109f6565b6040516102a391906133a1565b60405180910390f35b3480156102b857600080fd5b506102d360048036038101906102ce91906135a0565b610aa9565b005b3480156102e157600080fd5b506102fc60048036038101906102f79190613723565b610b09565b6040516103099190613467565b60405180910390f35b34801561031e57600080fd5b50610327610b52565b60405161033491906133a1565b60405180910390f35b34801561034957600080fd5b50610352610be0565b005b34801561036057600080fd5b5061037b600480360381019061037691906135a0565b610ca6565b005b34801561038957600080fd5b506103a4600480360381019061039f91906133f9565b610cc6565b6040516103b191906133a1565b60405180910390f35b3480156103c657600080fd5b506103e160048036038101906103dc9190613723565b610d66565b6040516103ee91906133a1565b60405180910390f35b34801561040357600080fd5b5061041e600480360381019061041991906133f9565b610e1c565b60405161042b9190613467565b60405180910390f35b34801561044057600080fd5b5061045b6004803603810190610456919061376c565b610ece565b60405161046891906137a8565b60405180910390f35b34801561047d57600080fd5b50610486610f86565b60405161049391906137e4565b60405180910390f35b3480156104a857600080fd5b506104b1610fac565b6040516104be91906132ed565b60405180910390f35b3480156104d357600080fd5b506104dc611004565b6040516104e991906133a1565b60405180910390f35b3480156104fe57600080fd5b5061051960048036038101906105149190613553565b611096565b60405161052691906132ed565b60405180910390f35b34801561053b57600080fd5b506105566004803603810190610551919061382b565b61114a565b005b34801561056457600080fd5b5061057f600480360381019061057a919061390c565b611160565b005b34801561058d57600080fd5b506105a860048036038101906105a39190613553565b6111c2565b6040516105b59190613467565b60405180910390f35b3480156105ca57600080fd5b506105e560048036038101906105e0919061398f565b61120d565b005b3480156105f357600080fd5b5061060e600480360381019061060991906133f9565b6112e8565b60405161061b91906133a1565b60405180910390f35b34801561063057600080fd5b5061064b60048036038101906106469190613a10565b61143a565b60405161065891906132ed565b60405180910390f35b61067b60048036038101906106769190613553565b6114ce565b005b34801561068957600080fd5b506106926119c5565b60405161069f9190613b5c565b60405180910390f35b3480156106b457600080fd5b506106cf60048036038101906106ca9190613553565b611ba3565b6040516106dc91906137a8565b60405180910390f35b60007f80ac58cd000000000000000000000000000000000000000000000000000000007bffffffffffffffffffffffffffffffffffffffffffffffffffffffff1916827bffffffffffffffffffffffffffffffffffffffffffffffffffffffff191614806107b057507f5b5e139f000000000000000000000000000000000000000000000000000000007bffffffffffffffffffffffffffffffffffffffffffffffffffffffff1916827bffffffffffffffffffffffffffffffffffffffffffffffffffffffff1916145b806107c057506107bf82611d24565b5b9050919050565b6060600080546107d690613bad565b80601f016020809104026020016040519081016040528092919081815260200182805461080290613bad565b801561084f5780601f106108245761010080835404028352916020019161084f565b820191906000526020600020905b81548152906001019060200180831161083257829003601f168201915b5050505050905090565b600061086482611d8e565b6108a3576040517f08c379a000000000000000000000000000000000000000000000000000000000815260040161089a90613c51565b60405180910390fd5b6004600083815260200190815260200160002060009054906101000a900473ffffffffffffffffffffffffffffffffffffffff169050919050565b60006108e982610e1c565b90508073ffffffffffffffffffffffffffffffffffffffff168373ffffffffffffffffffffffffffffffffffffffff16141561095a576040517f08c379a000000000000000000000000000000000000000000000000000000000815260040161095190613ce3565b60405180910390fd5b8073ffffffffffffffffffffffffffffffffffffffff16610979611dfa565b73ffffffffffffffffffffffffffffffffffffffff1614806109a857506109a7816109a2611dfa565b61143a565b5b6109e7576040517f08c379a00000000000000000000000000000000000000000000000000000000081526004016109de90613d75565b60405180910390fd5b6109f18383611e02565b505050565b6060600d8383604051610a0a929190613dc5565b90815260200160405180910390208054610a2390613bad565b80601f0160208091040260200160405190810160405280929190818152602001828054610a4f90613bad565b8015610a9c5780601f10610a7157610100808354040283529160200191610a9c565b820191906000526020600020905b815481529060010190602001808311610a7f57829003601f168201915b5050505050905092915050565b610aba610ab4611dfa565b82611ebb565b610af9576040517f08c379a0000000000000000000000000000000000000000000000000000000008152600401610af090613e50565b60405180910390fd5b610b04838383611f99565b505050565b600b818051602081018201805184825260208301602085012081835280955050505050506000915054906101000a900473ffffffffffffffffffffffffffffffffffffffff1681565b60088054610b5f90613bad565b80601f0160208091040260200160405190810160405280929190818152602001828054610b8b90613bad565b8015610bd85780601f10610bad57610100808354040283529160200191610bd8565b820191906000526020600020905b815481529060010190602001808311610bbb57829003601f168201915b505050505081565b610be8610fac565b610bf157600080fd5b600047905060003373ffffffffffffffffffffffffffffffffffffffff1682604051610c1c90613ea1565b60006040518083038185875af1925050503d8060008114610c59576040519150601f19603f3d011682016040523d82523d6000602084013e610c5e565b606091505b5050905080610ca2576040517f08c379a0000000000000000000000000000000000000000000000000000000008152600401610c9990613f02565b60405180910390fd5b5050565b610cc183838360405180602001604052806000815250611160565b505050565b600c6020528060005260406000206000915090508054610ce590613bad565b80601f0160208091040260200160405190810160405280929190818152602001828054610d1190613bad565b8015610d5e5780601f10610d3357610100808354040283529160200191610d5e565b820191906000526020600020905b815481529060010190602001808311610d4157829003601f168201915b505050505081565b600d818051602081018201805184825260208301602085012081835280955050505050506000915090508054610d9b90613bad565b80601f0160208091040260200160405190810160405280929190818152602001828054610dc790613bad565b8015610e145780601f10610de957610100808354040283529160200191610e14565b820191906000526020600020905b815481529060010190602001808311610df757829003601f168201915b505050505081565b6000806002600084815260200190815260200160002060009054906101000a900473ffffffffffffffffffffffffffffffffffffffff169050600073ffffffffffffffffffffffffffffffffffffffff168173ffffffffffffffffffffffffffffffffffffffff161415610ec5576040517f08c379a0000000000000000000000000000000000000000000000000000000008152600401610ebc90613f94565b60405180910390fd5b80915050919050565b60008073ffffffffffffffffffffffffffffffffffffffff168273ffffffffffffffffffffffffffffffffffffffff161415610f3f576040517f08c379a0000000000000000000000000000000000000000000000000000000008152600401610f3690614026565b60405180910390fd5b600360008373ffffffffffffffffffffffffffffffffffffffff1673ffffffffffffffffffffffffffffffffffffffff168152602001908152602001600020549050919050565b600e60009054906101000a900473ffffffffffffffffffffffffffffffffffffffff1681565b6000600e60009054906101000a900473ffffffffffffffffffffffffffffffffffffffff1673ffffffffffffffffffffffffffffffffffffffff163373ffffffffffffffffffffffffffffffffffffffff1614905090565b60606001805461101390613bad565b80601f016020809104026020016040519081016040528092919081815260200182805461103f90613bad565b801561108c5780601f106110615761010080835404028352916020019161108c565b820191906000526020600020905b81548152906001019060200180831161106f57829003601f168201915b5050505050905090565b600060036110e784848080601f016020809104026020016040519081016040528093929190818152602001838380828437600081840152601f19601f82011690508083019250505050505050612200565b101580156111425750600a61113f84848080601f016020809104026020016040519081016040528093929190818152602001838380828437600081840152601f19601f82011690508083019250505050505050612200565b11155b905092915050565b61115c611155611dfa565b83836123b5565b5050565b61117161116b611dfa565b83611ebb565b6111b0576040517f08c379a00000000000000000000000000000000000000000000000000000000081526004016111a790613e50565b60405180910390fd5b6111bc84848484612522565b50505050565b6000600b83836040516111d6929190613dc5565b908152602001604051809103902060009054906101000a900473ffffffffffffffffffffffffffffffffffffffff16905092915050565b600b848460405161121f929190613dc5565b908152602001604051809103902060009054906101000a900473ffffffffffffffffffffffffffffffffffffffff1673ffffffffffffffffffffffffffffffffffffffff163373ffffffffffffffffffffffffffffffffffffffff16146112b2576040517f82b4290000000000000000000000000000000000000000000000000000000000815260040160405180910390fd5b8181600d86866040516112c6929190613dc5565b908152602001604051809103902091906112e1929190613110565b5050505050565b60606112f382611d8e565b611332576040517f08c379a0000000000000000000000000000000000000000000000000000000008152600401611329906140b8565b60405180910390fd5b600060066000848152602001908152602001600020805461135290613bad565b80601f016020809104026020016040519081016040528092919081815260200182805461137e90613bad565b80156113cb5780601f106113a0576101008083540402835291602001916113cb565b820191906000526020600020905b8154815290600101906020018083116113ae57829003601f168201915b5050505050905060006113dc61257e565b90506000815114156113f2578192505050611435565b60008251111561142757808260405160200161140f929190614109565b60405160208183030381529060405292505050611435565b61143084612595565b925050505b919050565b6000600560008473ffffffffffffffffffffffffffffffffffffffff1673ffffffffffffffffffffffffffffffffffffffff16815260200190815260200160002060008373ffffffffffffffffffffffffffffffffffffffff1673ffffffffffffffffffffffffffffffffffffffff16815260200190815260200160002060009054906101000a900460ff16905092915050565b600073ffffffffffffffffffffffffffffffffffffffff16600b83836040516114f8929190613dc5565b908152602001604051809103902060009054906101000a900473ffffffffffffffffffffffffffffffffffffffff1673ffffffffffffffffffffffffffffffffffffffff1614611574576040517f3a81d6fc00000000000000000000000000000000000000000000000000000000815260040160405180910390fd5b61157e8282611096565b6115c15781816040517f7f19f48d0000000000000000000000000000000000000000000000000000000081526004016115b892919061415a565b60405180910390fd5b60006115cd8383611ba3565b905080341015611612576040517f08c379a0000000000000000000000000000000000000000000000000000000008152600401611609906141ca565b60405180910390fd5b60008383600860405160200161162a939291906142ca565b60405160208183030381529060405290506000600982600a604051602001611654939291906142fb565b60405160208183030381529060405290506000611671600761263c565b905060006116c287878080601f016020809104026020016040519081016040528093929190818152602001838380828437600081840152601f19601f82011690508083019250505050505050612200565b905060006116cf8261264a565b90506117c3604051806060016040528060318152602001614e596031913989898080601f016020809104026020016040519081016040528093929190818152602001838380828437600081840152601f19601f820116905080830192505050505050506008805461173f90613bad565b80601f016020809104026020016040519081016040528092919081815260200182805461176b90613bad565b80156117b85780601f1061178d576101008083540402835291602001916117b8565b820191906000526020600020905b81548152906001019060200180831161179b57829003601f168201915b5050505050866127ab565b60006117f9866117d28761284d565b846040516020016117e5939291906144a8565b60405160208183030381529060405261284d565b905060008160405160200161180e9190614551565b604051602081830303815290604052905061185d6040518060400160405280601581526020017f0a2d2d2d2d2d2d2d2d2d2d2d2d2d2d2d2d2d2d2d2d00000000000000000000008152506129e5565b61189c6040518060400160405280600f81526020017f46696e616c20546f6b656e20555249000000000000000000000000000000000081525082611c88565b6118da6040518060400160405280601581526020017f0a2d2d2d2d2d2d2d2d2d2d2d2d2d2d2d2d2d2d2d2d00000000000000000000008152506129e5565b6118e43386612a7e565b6118ee8582612a9c565b33600b8b8b604051611901929190613dc5565b908152602001604051809103902060006101000a81548173ffffffffffffffffffffffffffffffffffffffff021916908373ffffffffffffffffffffffffffffffffffffffff16021790555061198c6040518060400160405280601c81526020017f2573206861732072656769737465726564206120646f6d61696e21200000000081525033612b10565b6119966007612bac565b8989600c600088815260200190815260200160002091906119b8929190613110565b5050505050505050505050565b6060611a056040518060400160405280601f81526020017f47657474696e6720616c6c206e616d65732066726f6d20636f6e7472616374008152506129e5565b6000611a11600761263c565b67ffffffffffffffff811115611a2a57611a296135f8565b5b604051908082528060200260200182016040528015611a5d57816020015b6060815260200190600190039081611a485790505b50905060005b611a6d600761263c565b811015611b9b57600c60008281526020019081526020016000208054611a9290613bad565b80601f0160208091040260200160405190810160405280929190818152602001828054611abe90613bad565b8015611b0b5780601f10611ae057610100808354040283529160200191611b0b565b820191906000526020600020905b815481529060010190602001808311611aee57829003601f168201915b5050505050828281518110611b2357611b22614573565b5b6020026020010181905250611b886040518060400160405280601781526020017f4e616d6520666f7220746f6b656e20256420697320257300000000000000000081525082848481518110611b7b57611b7a614573565b5b6020026020010151612bc2565b8080611b93906145d1565b915050611a63565b508091505090565b600080611bf384848080601f016020809104026020016040519081016040528093929190818152602001838380828437600081840152601f19601f82011690508083019250505050505050612200565b9050611c346040518060400160405280600f81526020017f737472696e67206c656e6774683a20000000000000000000000000000000000081525082612c61565b60008111611c4157600080fd5b6003811415611c5b576706f05b59d3b20000915050611c82565b6004811415611c7557670429d069189e0000915050611c82565b67016345785d8a00009150505b92915050565b611d208282604051602401611c9e92919061461a565b6040516020818303038152906040527f4b5c4277000000000000000000000000000000000000000000000000000000007bffffffffffffffffffffffffffffffffffffffffffffffffffffffff19166020820180517bffffffffffffffffffffffffffffffffffffffffffffffffffffffff8381831617835250505050612cfd565b5050565b60007f01ffc9a7000000000000000000000000000000000000000000000000000000007bffffffffffffffffffffffffffffffffffffffffffffffffffffffff1916827bffffffffffffffffffffffffffffffffffffffffffffffffffffffff1916149050919050565b60008073ffffffffffffffffffffffffffffffffffffffff166002600084815260200190815260200160002060009054906101000a900473ffffffffffffffffffffffffffffffffffffffff1673ffffffffffffffffffffffffffffffffffffffff1614159050919050565b600033905090565b816004600083815260200190815260200160002060006101000a81548173ffffffffffffffffffffffffffffffffffffffff021916908373ffffffffffffffffffffffffffffffffffffffff160217905550808273ffffffffffffffffffffffffffffffffffffffff16611e7583610e1c565b73ffffffffffffffffffffffffffffffffffffffff167f8c5be1e5ebec7d5bd14f71427d1e84f3dd0314c0f7b2291e5b200ac8c7c3b92560405160405180910390a45050565b6000611ec682611d8e565b611f05576040517f08c379a0000000000000000000000000000000000000000000000000000000008152600401611efc906146c3565b60405180910390fd5b6000611f1083610e1c565b90508073ffffffffffffffffffffffffffffffffffffffff168473ffffffffffffffffffffffffffffffffffffffff161480611f7f57508373ffffffffffffffffffffffffffffffffffffffff16611f6784610859565b73ffffffffffffffffffffffffffffffffffffffff16145b80611f905750611f8f818561143a565b5b91505092915050565b8273ffffffffffffffffffffffffffffffffffffffff16611fb982610e1c565b73ffffffffffffffffffffffffffffffffffffffff161461200f576040517f08c379a000000000000000000000000000000000000000000000000000000000815260040161200690614755565b60405180910390fd5b600073ffffffffffffffffffffffffffffffffffffffff168273ffffffffffffffffffffffffffffffffffffffff16141561207f576040517f08c379a0000000000000000000000000000000000000000000000000000000008152600401612076906147e7565b60405180910390fd5b61208a838383612d26565b612095600082611e02565b6001600360008573ffffffffffffffffffffffffffffffffffffffff1673ffffffffffffffffffffffffffffffffffffffff16815260200190815260200160002060008282546120e59190614807565b925050819055506001600360008473ffffffffffffffffffffffffffffffffffffffff1673ffffffffffffffffffffffffffffffffffffffff168152602001908152602001600020600082825461213c919061483b565b92505081905550816002600083815260200190815260200160002060006101000a81548173ffffffffffffffffffffffffffffffffffffffff021916908373ffffffffffffffffffffffffffffffffffffffff160217905550808273ffffffffffffffffffffffffffffffffffffffff168473ffffffffffffffffffffffffffffffffffffffff167fddf252ad1be2c89b69c2b068fc378daa952ba7f163c4a11628f55a4df523b3ef60405160405180910390a46121fb838383612d2b565b505050565b60008060008084519050600092505b808210156123aa57600085838151811061222c5761222b614573565b5b602001015160f81c60f81b9050608060f81b817effffffffffffffffffffffffffffffffffffffffffffffffffffffffffffff1916101561227b57600183612274919061483b565b9250612396565b60e060f81b817effffffffffffffffffffffffffffffffffffffffffffffffffffffffffffff191610156122bd576002836122b6919061483b565b9250612395565b60f060f81b817effffffffffffffffffffffffffffffffffffffffffffffffffffffffffffff191610156122ff576003836122f8919061483b565b9250612394565b60f8801b817effffffffffffffffffffffffffffffffffffffffffffffffffffffffffffff1916101561234057600483612339919061483b565b9250612393565b60fc60f81b817effffffffffffffffffffffffffffffffffffffffffffffffffffffffffffff191610156123825760058361237b919061483b565b9250612392565b60068361238f919061483b565b92505b5b5b5b5b5082806123a2906145d1565b93505061220f565b829350505050919050565b8173ffffffffffffffffffffffffffffffffffffffff168373ffffffffffffffffffffffffffffffffffffffff161415612424576040517f08c379a000000000000000000000000000000000000000000000000000000000815260040161241b906148dd565b60405180910390fd5b80600560008573ffffffffffffffffffffffffffffffffffffffff1673ffffffffffffffffffffffffffffffffffffffff16815260200190815260200160002060008473ffffffffffffffffffffffffffffffffffffffff1673ffffffffffffffffffffffffffffffffffffffff16815260200190815260200160002060006101000a81548160ff0219169083151502179055508173ffffffffffffffffffffffffffffffffffffffff168373ffffffffffffffffffffffffffffffffffffffff167f17307eab39ab6107e8899845ad3d59bd9653f200f220920489ca2b5937696c318360405161251591906132ed565b60405180910390a3505050565b61252d848484611f99565b61253984848484612d30565b612578576040517f08c379a000000000000000000000000000000000000000000000000000000000815260040161256f9061496f565b60405180910390fd5b50505050565b606060405180602001604052806000815250905090565b60606125a082611d8e565b6125df576040517f08c379a00000000000000000000000000000000000000000000000000000000081526004016125d690614a01565b60405180910390fd5b60006125e961257e565b905060008151116126095760405180602001604052806000815250612634565b806126138461264a565b604051602001612624929190614109565b6040516020818303038152906040525b915050919050565b600081600001549050919050565b60606000821415612692576040518060400160405280600181526020017f300000000000000000000000000000000000000000000000000000000000000081525090506127a6565b600082905060005b600082146126c45780806126ad906145d1565b915050600a826126bd9190614a50565b915061269a565b60008167ffffffffffffffff8111156126e0576126df6135f8565b5b6040519080825280601f01601f1916602001820160405280156127125781602001600182028036833780820191505090505b5090505b6000851461279f5760018261272b9190614807565b9150600a8561273a9190614a81565b6030612746919061483b565b60f81b81838151811061275c5761275b614573565b5b60200101907effffffffffffffffffffffffffffffffffffffffffffffffffffffffffffff1916908160001a905350600a856127989190614a50565b9450612716565b8093505050505b919050565b612847848484846040516024016127c59493929190614ab2565b6040516020818303038152906040527f9fd009f5000000000000000000000000000000000000000000000000000000007bffffffffffffffffffffffffffffffffffffffffffffffffffffffff19166020820180517bffffffffffffffffffffffffffffffffffffffffffffffffffffffff8381831617835250505050612cfd565b50505050565b6060600082519050600081141561287657604051806020016040528060008152509150506129e0565b60006003600283612887919061483b565b6128919190614a50565b600461289d9190614b0c565b905060006020826128ae919061483b565b67ffffffffffffffff8111156128c7576128c66135f8565b5b6040519080825280601f01601f1916602001820160405280156128f95781602001600182028036833780820191505090505b5090506000604051806060016040528060408152602001614e8a604091399050600181016020830160005b8681101561299d5760038101905062ffffff818a015116603f8160121c168401518060081b905060ff603f83600c1c1686015116810190508060081b905060ff603f8360061c1686015116810190508060081b905060ff603f831686015116810190508060e01b90508084526004840193505050612924565b5060038606600181146129b757600281146129c7576129d2565b613d3d60f01b60028303526129d2565b603d60f81b60018303525b508484525050819450505050505b919050565b612a7b816040516024016129f991906133a1565b6040516020818303038152906040527f41304fac000000000000000000000000000000000000000000000000000000007bffffffffffffffffffffffffffffffffffffffffffffffffffffffff19166020820180517bffffffffffffffffffffffffffffffffffffffffffffffffffffffff8381831617835250505050612cfd565b50565b612a98828260405180602001604052806000815250612eb8565b5050565b612aa582611d8e565b612ae4576040517f08c379a0000000000000000000000000000000000000000000000000000000008152600401612adb90614bd8565b60405180910390fd5b80600660008481526020019081526020016000209080519060200190612b0b929190613196565b505050565b612ba88282604051602401612b26929190614bf8565b6040516020818303038152906040527f319af333000000000000000000000000000000000000000000000000000000007bffffffffffffffffffffffffffffffffffffffffffffffffffffffff19166020820180517bffffffffffffffffffffffffffffffffffffffffffffffffffffffff8381831617835250505050612cfd565b5050565b6001816000016000828254019250508190555050565b612c5c838383604051602401612bda93929190614c28565b6040516020818303038152906040527fa3f5c739000000000000000000000000000000000000000000000000000000007bffffffffffffffffffffffffffffffffffffffffffffffffffffffff19166020820180517bffffffffffffffffffffffffffffffffffffffffffffffffffffffff8381831617835250505050612cfd565b505050565b612cf98282604051602401612c77929190614c6d565b6040516020818303038152906040527f9710a9d0000000000000000000000000000000000000000000000000000000007bffffffffffffffffffffffffffffffffffffffffffffffffffffffff19166020820180517bffffffffffffffffffffffffffffffffffffffffffffffffffffffff8381831617835250505050612cfd565b5050565b60008151905060006a636f6e736f6c652e6c6f679050602083016000808483855afa5050505050565b505050565b505050565b6000612d518473ffffffffffffffffffffffffffffffffffffffff16612f13565b15612eab578373ffffffffffffffffffffffffffffffffffffffff1663150b7a02612d7a611dfa565b8786866040518563ffffffff1660e01b8152600401612d9c9493929190614cf2565b6020604051808303816000875af1925050508015612dd857506040513d601f19601f82011682018060405250810190612dd59190614d53565b60015b612e5b573d8060008114612e08576040519150601f19603f3d011682016040523d82523d6000602084013e612e0d565b606091505b50600081511415612e53576040517f08c379a0000000000000000000000000000000000000000000000000000000008152600401612e4a9061496f565b60405180910390fd5b805181602001fd5b63150b7a0260e01b7bffffffffffffffffffffffffffffffffffffffffffffffffffffffff1916817bffffffffffffffffffffffffffffffffffffffffffffffffffffffff191614915050612eb0565b600190505b949350505050565b612ec28383612f36565b612ecf6000848484612d30565b612f0e576040517f08c379a0000000000000000000000000000000000000000000000000000000008152600401612f059061496f565b60405180910390fd5b505050565b6000808273ffffffffffffffffffffffffffffffffffffffff163b119050919050565b600073ffffffffffffffffffffffffffffffffffffffff168273ffffffffffffffffffffffffffffffffffffffff161415612fa6576040517f08c379a0000000000000000000000000000000000000000000000000000000008152600401612f9d90614dcc565b60405180910390fd5b612faf81611d8e565b15612fef576040517f08c379a0000000000000000000000000000000000000000000000000000000008152600401612fe690614e38565b60405180910390fd5b612ffb60008383612d26565b6001600360008473ffffffffffffffffffffffffffffffffffffffff1673ffffffffffffffffffffffffffffffffffffffff168152602001908152602001600020600082825461304b919061483b565b92505081905550816002600083815260200190815260200160002060006101000a81548173ffffffffffffffffffffffffffffffffffffffff021916908373ffffffffffffffffffffffffffffffffffffffff160217905550808273ffffffffffffffffffffffffffffffffffffffff16600073ffffffffffffffffffffffffffffffffffffffff167fddf252ad1be2c89b69c2b068fc378daa952ba7f163c4a11628f55a4df523b3ef60405160405180910390a461310c60008383612d2b565b5050565b82805461311c90613bad565b90600052602060002090601f01602090048101928261313e5760008555613185565b82601f1061315757803560ff1916838001178555613185565b82800160010185558215613185579182015b82811115613184578235825591602001919060010190613169565b5b509050613192919061321c565b5090565b8280546131a290613bad565b90600052602060002090601f0160209004810192826131c4576000855561320b565b82601f106131dd57805160ff191683800117855561320b565b8280016001018555821561320b579182015b8281111561320a5782518255916020019190600101906131ef565b5b509050613218919061321c565b5090565b5b8082111561323557600081600090555060010161321d565b5090565b6000604051905090565b600080fd5b600080fd5b60007fffffffff0000000000000000000000000000000000000000000000000000000082169050919050565b6132828161324d565b811461328d57600080fd5b50565b60008135905061329f81613279565b92915050565b6000602082840312156132bb576132ba613243565b5b60006132c984828501613290565b91505092915050565b60008115159050919050565b6132e7816132d2565b82525050565b600060208201905061330260008301846132de565b92915050565b600081519050919050565b600082825260208201905092915050565b60005b83811015613342578082015181840152602081019050613327565b83811115613351576000848401525b50505050565b6000601f19601f8301169050919050565b600061337382613308565b61337d8185613313565b935061338d818560208601613324565b61339681613357565b840191505092915050565b600060208201905081810360008301526133bb8184613368565b905092915050565b6000819050919050565b6133d6816133c3565b81146133e157600080fd5b50565b6000813590506133f3816133cd565b92915050565b60006020828403121561340f5761340e613243565b5b600061341d848285016133e4565b91505092915050565b600073ffffffffffffffffffffffffffffffffffffffff82169050919050565b600061345182613426565b9050919050565b61346181613446565b82525050565b600060208201905061347c6000830184613458565b92915050565b61348b81613446565b811461349657600080fd5b50565b6000813590506134a881613482565b92915050565b600080604083850312156134c5576134c4613243565b5b60006134d385828601613499565b92505060206134e4858286016133e4565b9150509250929050565b600080fd5b600080fd5b600080fd5b60008083601f840112613513576135126134ee565b5b8235905067ffffffffffffffff8111156135305761352f6134f3565b5b60208301915083600182028301111561354c5761354b6134f8565b5b9250929050565b6000806020838503121561356a57613569613243565b5b600083013567ffffffffffffffff81111561358857613587613248565b5b613594858286016134fd565b92509250509250929050565b6000806000606084860312156135b9576135b8613243565b5b60006135c786828701613499565b93505060206135d886828701613499565b92505060406135e9868287016133e4565b9150509250925092565b600080fd5b7f4e487b7100000000000000000000000000000000000000000000000000000000600052604160045260246000fd5b61363082613357565b810181811067ffffffffffffffff8211171561364f5761364e6135f8565b5b80604052505050565b6000613662613239565b905061366e8282613627565b919050565b600067ffffffffffffffff82111561368e5761368d6135f8565b5b61369782613357565b9050602081019050919050565b82818337600083830152505050565b60006136c66136c184613673565b613658565b9050828152602081018484840111156136e2576136e16135f3565b5b6136ed8482856136a4565b509392505050565b600082601f83011261370a576137096134ee565b5b813561371a8482602086016136b3565b91505092915050565b60006020828403121561373957613738613243565b5b600082013567ffffffffffffffff81111561375757613756613248565b5b613763848285016136f5565b91505092915050565b60006020828403121561378257613781613243565b5b600061379084828501613499565b91505092915050565b6137a2816133c3565b82525050565b60006020820190506137bd6000830184613799565b92915050565b60006137ce82613426565b9050919050565b6137de816137c3565b82525050565b60006020820190506137f960008301846137d5565b92915050565b613808816132d2565b811461381357600080fd5b50565b600081359050613825816137ff565b92915050565b6000806040838503121561384257613841613243565b5b600061385085828601613499565b925050602061386185828601613816565b9150509250929050565b600067ffffffffffffffff821115613886576138856135f8565b5b61388f82613357565b9050602081019050919050565b60006138af6138aa8461386b565b613658565b9050828152602081018484840111156138cb576138ca6135f3565b5b6138d68482856136a4565b509392505050565b600082601f8301126138f3576138f26134ee565b5b813561390384826020860161389c565b91505092915050565b6000806000806080858703121561392657613925613243565b5b600061393487828801613499565b945050602061394587828801613499565b9350506040613956878288016133e4565b925050606085013567ffffffffffffffff81111561397757613976613248565b5b613983878288016138de565b91505092959194509250565b600080600080604085870312156139a9576139a8613243565b5b600085013567ffffffffffffffff8111156139c7576139c6613248565b5b6139d3878288016134fd565b9450945050602085013567ffffffffffffffff8111156139f6576139f5613248565b5b613a02878288016134fd565b925092505092959194509250565b60008060408385031215613a2757613a26613243565b5b6000613a3585828601613499565b9250506020613a4685828601613499565b9150509250929050565b600081519050919050565b600082825260208201905092915050565b6000819050602082019050919050565b600082825260208201905092915050565b6000613a9882613308565b613aa28185613a7c565b9350613ab2818560208601613324565b613abb81613357565b840191505092915050565b6000613ad28383613a8d565b905092915050565b6000602082019050919050565b6000613af282613a50565b613afc8185613a5b565b935083602082028501613b0e85613a6c565b8060005b85811015613b4a5784840389528151613b2b8582613ac6565b9450613b3683613ada565b925060208a01995050600181019050613b12565b50829750879550505050505092915050565b60006020820190508181036000830152613b768184613ae7565b905092915050565b7f4e487b7100000000000000000000000000000000000000000000000000000000600052602260045260246000fd5b60006002820490506001821680613bc557607f821691505b60208210811415613bd957613bd8613b7e565b5b50919050565b7f4552433732313a20617070726f76656420717565727920666f72206e6f6e657860008201527f697374656e7420746f6b656e0000000000000000000000000000000000000000602082015250565b6000613c3b602c83613313565b9150613c4682613bdf565b604082019050919050565b60006020820190508181036000830152613c6a81613c2e565b9050919050565b7f4552433732313a20617070726f76616c20746f2063757272656e74206f776e6560008201527f7200000000000000000000000000000000000000000000000000000000000000602082015250565b6000613ccd602183613313565b9150613cd882613c71565b604082019050919050565b60006020820190508181036000830152613cfc81613cc0565b9050919050565b7f4552433732313a20617070726f76652063616c6c6572206973206e6f74206f7760008201527f6e6572206e6f7220617070726f76656420666f7220616c6c0000000000000000602082015250565b6000613d5f603883613313565b9150613d6a82613d03565b604082019050919050565b60006020820190508181036000830152613d8e81613d52565b9050919050565b600081905092915050565b6000613dac8385613d95565b9350613db98385846136a4565b82840190509392505050565b6000613dd2828486613da0565b91508190509392505050565b7f4552433732313a207472616e736665722063616c6c6572206973206e6f74206f60008201527f776e6572206e6f7220617070726f766564000000000000000000000000000000602082015250565b6000613e3a603183613313565b9150613e4582613dde565b604082019050919050565b60006020820190508181036000830152613e6981613e2d565b9050919050565b600081905092915050565b50565b6000613e8b600083613e70565b9150613e9682613e7b565b600082019050919050565b6000613eac82613e7e565b9150819050919050565b7f4661696c656420746f207769746864726177204d617469630000000000000000600082015250565b6000613eec601883613313565b9150613ef782613eb6565b602082019050919050565b60006020820190508181036000830152613f1b81613edf565b9050919050565b7f4552433732313a206f776e657220717565727920666f72206e6f6e657869737460008201527f656e7420746f6b656e0000000000000000000000000000000000000000000000602082015250565b6000613f7e602983613313565b9150613f8982613f22565b604082019050919050565b60006020820190508181036000830152613fad81613f71565b9050919050565b7f4552433732313a2062616c616e636520717565727920666f7220746865207a6560008201527f726f206164647265737300000000000000000000000000000000000000000000602082015250565b6000614010602a83613313565b915061401b82613fb4565b604082019050919050565b6000602082019050818103600083015261403f81614003565b9050919050565b7f45524337323155524953746f726167653a2055524920717565727920666f722060008201527f6e6f6e6578697374656e7420746f6b656e000000000000000000000000000000602082015250565b60006140a2603183613313565b91506140ad82614046565b604082019050919050565b600060208201905081810360008301526140d181614095565b9050919050565b60006140e382613308565b6140ed8185613d95565b93506140fd818560208601613324565b80840191505092915050565b600061411582856140d8565b915061412182846140d8565b91508190509392505050565b60006141398385613313565b93506141468385846136a4565b61414f83613357565b840190509392505050565b6000602082019050818103600083015261417581848661412d565b90509392505050565b7f4e6f7420656e6f756768204d6174696320706169640000000000000000000000600082015250565b60006141b4601583613313565b91506141bf8261417e565b602082019050919050565b600060208201905081810360008301526141e3816141a7565b9050919050565b7f2e00000000000000000000000000000000000000000000000000000000000000600082015250565b6000614220600183613d95565b915061422b826141ea565b600182019050919050565b60008190508160005260206000209050919050565b6000815461425881613bad565b6142628186613d95565b9450600182166000811461427d576001811461428e576142c1565b60ff198316865281860193506142c1565b61429785614236565b60005b838110156142b95781548189015260018201915060208101905061429a565b838801955050505b50505092915050565b60006142d7828587613da0565b91506142e282614213565b91506142ee828461424b565b9150819050949350505050565b6000614307828661424b565b915061431382856140d8565b915061431f828461424b565b9150819050949350505050565b7f7b226e616d65223a202200000000000000000000000000000000000000000000600082015250565b6000614362600a83613d95565b915061436d8261432c565b600a82019050919050565b7f222c20226465736372697074696f6e223a20224120646f6d61696e206f6e207460008201527f6865204e696e6a61206e616d652073657276696365222c2022696d616765223a60208201527f2022646174613a696d6167652f7376672b786d6c3b6261736536342c00000000604082015250565b60006143fa605c83613d95565b915061440582614378565b605c82019050919050565b7f222c226c656e677468223a220000000000000000000000000000000000000000600082015250565b6000614446600c83613d95565b915061445182614410565b600c82019050919050565b7f227d000000000000000000000000000000000000000000000000000000000000600082015250565b6000614492600283613d95565b915061449d8261445c565b600282019050919050565b60006144b382614355565b91506144bf82866140d8565b91506144ca826143ed565b91506144d682856140d8565b91506144e182614439565b91506144ed82846140d8565b91506144f882614485565b9150819050949350505050565b7f646174613a6170706c69636174696f6e2f6a736f6e3b6261736536342c000000600082015250565b600061453b601d83613d95565b915061454682614505565b601d82019050919050565b600061455c8261452e565b915061456882846140d8565b915081905092915050565b7f4e487b7100000000000000000000000000000000000000000000000000000000600052603260045260246000fd5b7f4e487b7100000000000000000000000000000000000000000000000000000000600052601160045260246000fd5b60006145dc826133c3565b91507fffffffffffffffffffffffffffffffffffffffffffffffffffffffffffffffff82141561460f5761460e6145a2565b5b600182019050919050565b600060408201905081810360008301526146348185613368565b905081810360208301526146488184613368565b90509392505050565b7f4552433732313a206f70657261746f7220717565727920666f72206e6f6e657860008201527f697374656e7420746f6b656e0000000000000000000000000000000000000000602082015250565b60006146ad602c83613313565b91506146b882614651565b604082019050919050565b600060208201905081810360008301526146dc816146a0565b9050919050565b7f4552433732313a207472616e736665722066726f6d20696e636f72726563742060008201527f6f776e6572000000000000000000000000000000000000000000000000000000602082015250565b600061473f602583613313565b915061474a826146e3565b604082019050919050565b6000602082019050818103600083015261476e81614732565b9050919050565b7f4552433732313a207472616e7366657220746f20746865207a65726f2061646460008201527f7265737300000000000000000000000000000000000000000000000000000000602082015250565b60006147d1602483613313565b91506147dc82614775565b604082019050919050565b60006020820190508181036000830152614800816147c4565b9050919050565b6000614812826133c3565b915061481d836133c3565b9250828210156148305761482f6145a2565b5b828203905092915050565b6000614846826133c3565b9150614851836133c3565b9250827fffffffffffffffffffffffffffffffffffffffffffffffffffffffffffffffff03821115614886576148856145a2565b5b828201905092915050565b7f4552433732313a20617070726f766520746f2063616c6c657200000000000000600082015250565b60006148c7601983613313565b91506148d282614891565b602082019050919050565b600060208201905081810360008301526148f6816148ba565b9050919050565b7f4552433732313a207472616e7366657220746f206e6f6e20455243373231526560008201527f63656976657220696d706c656d656e7465720000000000000000000000000000602082015250565b6000614959603283613313565b9150614964826148fd565b604082019050919050565b600060208201905081810360008301526149888161494c565b9050919050565b7f4552433732314d657461646174613a2055524920717565727920666f72206e6f60008201527f6e6578697374656e7420746f6b656e0000000000000000000000000000000000602082015250565b60006149eb602f83613313565b91506149f68261498f565b604082019050919050565b60006020820190508181036000830152614a1a816149de565b9050919050565b7f4e487b7100000000000000000000000000000000000000000000000000000000600052601260045260246000fd5b6000614a5b826133c3565b9150614a66836133c3565b925082614a7657614a75614a21565b5b828204905092915050565b6000614a8c826133c3565b9150614a97836133c3565b925082614aa757614aa6614a21565b5b828206905092915050565b60006080820190508181036000830152614acc8187613368565b90508181036020830152614ae08186613368565b90508181036040830152614af48185613368565b9050614b036060830184613799565b95945050505050565b6000614b17826133c3565b9150614b22836133c3565b9250817fffffffffffffffffffffffffffffffffffffffffffffffffffffffffffffffff0483118215151615614b5b57614b5a6145a2565b5b828202905092915050565b7f45524337323155524953746f726167653a2055524920736574206f66206e6f6e60008201527f6578697374656e7420746f6b656e000000000000000000000000000000000000602082015250565b6000614bc2602e83613313565b9150614bcd82614b66565b604082019050919050565b60006020820190508181036000830152614bf181614bb5565b9050919050565b60006040820190508181036000830152614c128185613368565b9050614c216020830184613458565b9392505050565b60006060820190508181036000830152614c428186613368565b9050614c516020830185613799565b8181036040830152614c638184613368565b9050949350505050565b60006040820190508181036000830152614c878185613368565b9050614c966020830184613799565b9392505050565b600081519050919050565b600082825260208201905092915050565b6000614cc482614c9d565b614cce8185614ca8565b9350614cde818560208601613324565b614ce781613357565b840191505092915050565b6000608082019050614d076000830187613458565b614d146020830186613458565b614d216040830185613799565b8181036060830152614d338184614cb9565b905095945050505050565b600081519050614d4d81613279565b92915050565b600060208284031215614d6957614d68613243565b5b6000614d7784828501614d3e565b91505092915050565b7f4552433732313a206d696e7420746f20746865207a65726f2061646472657373600082015250565b6000614db6602083613313565b9150614dc182614d80565b602082019050919050565b60006020820190508181036000830152614de581614da9565b9050919050565b7f4552433732313a20746f6b656e20616c7265616479206d696e74656400000000600082015250565b6000614e22601c83613313565b9150614e2d82614dec565b602082019050919050565b60006020820190508181036000830152614e5181614e15565b905091905056fe5265676973746572696e672025732e2573206f6e2074686520636f6e7472616374207769746820746f6b656e49442025644142434445464748494a4b4c4d4e4f505152535455565758595a6162636465666768696a6b6c6d6e6f707172737475767778797a303132333435363738392b2fa26469706673582212207cfbb6d895ba8196f235b7bee44e43f371e5cc5d19da0c6a5883daabf25d0abe64736f6c634300080a00333c73766720786d6c6e733d22687474703a2f2f7777772e77332e6f72672f323030302f737667222077696474683d2232373022206865696768743d22323730222066696c6c3d226e6f6e65223e3c706174682066696c6c3d2275726c282342292220643d224d302030683237307632373048307a222f3e3c646566733e3c66696c7465722069643d22412220636f6c6f722d696e746572706f6c6174696f6e2d66696c746572733d2273524742222066696c746572556e6974733d227573657253706163654f6e55736522206865696768743d22323730222077696474683d22323730223e3c666544726f70536861646f772064783d2230222064793d22312220737464446576696174696f6e3d22322220666c6f6f642d6f7061636974793d222e323235222077696474683d223230302522206865696768743d2232303025222f3e3c2f66696c7465723e3c2f646566733e3c7061746820643d224d37322e3836332034322e393439632d2e3636382d2e3338372d312e3432362d2e35392d322e3139372d2e3539732d312e3532392e3230342d322e3139372e35396c2d31302e30383120362e3033322d362e383520332e3933342d31302e30383120362e303332632d2e3636382e3338372d312e3432362e35392d322e3139372e3539732d312e3532392d2e3230342d322e3139372d2e35396c2d382e3031332d342e37323161342e353220342e35322030203020312d312e3538392d312e363136632d2e3338342d2e3636352d2e3539342d312e3431382d2e3630382d322e313837762d392e3331632d2e3031332d2e3737352e3138352d312e3533382e3537322d322e32303861342e323520342e323520302030203120312e3632352d312e3539356c372e3838342d342e3539632e3636382d2e33383720312e3432362d2e353920322e3139372d2e353973312e3532392e32303420322e3139372e35396c372e38383420342e353961342e353220342e353220302030203120312e35383920312e363136632e3338342e3636352e35393420312e3431382e36303820322e31383776362e3033326c362e38352d342e303635762d362e303332632e3031332d2e3737352d2e3138352d312e3533382d2e3537322d322e32303861342e323520342e32352030203020302d312e3632352d312e3539354c34312e3435362032342e3539632d2e3636382d2e3338372d312e3432362d2e35392d322e3139372d2e3539732d312e3532392e3230342d322e3139372e35396c2d31342e38363420382e36353561342e323520342e32352030203020302d312e36323520312e353935632d2e3338372e36372d2e35383520312e3433342d2e35373220322e3230387631372e343431632d2e3031332e3737352e31383520312e3533382e35373220322e32303861342e323520342e323520302030203020312e36323520312e3539356c31342e38363420382e363535632e3636382e33383720312e3432362e353920322e3139372e353973312e3532392d2e32303420322e3139372d2e35396c31302e3038312d352e39303120362e38352d342e3036352031302e3038312d352e393031632e3636382d2e33383720312e3432362d2e353920322e3139372d2e353973312e3532392e32303420322e3139372e35396c372e38383420342e353961342e353220342e353220302030203120312e35383920312e363136632e3338342e3636352e35393420312e3431382e36303820322e31383776392e333131632e3031332e3737352d2e31383520312e3533382d2e35373220322e32303861342e323520342e32352030203020312d312e36323520312e3539356c2d372e38383420342e373231632d2e3636382e3338372d312e3432362e35392d322e3139372e3539732d312e3532392d2e3230342d322e3139372d2e35396c2d372e3838342d342e353961342e353220342e35322030203020312d312e3538392d312e363136632d2e3338352d2e3636352d2e3539342d312e3431382d2e3630382d322e313837762d362e3033326c2d362e383520342e30363576362e303332632d2e3031332e3737352e31383520312e3533382e35373220322e32303861342e323520342e323520302030203020312e36323520312e3539356c31342e38363420382e363535632e3636382e33383720312e3432362e353920322e3139372e353973312e3532392d2e32303420322e3139372d2e35396c31342e3836342d382e363535632e3635372d2e33393420312e3230342d2e393520312e3538392d312e363136732e3539342d312e3431382e3630392d322e3138375635352e353338632e3031332d2e3737352d2e3138352d312e3533382d2e3537322d322e32303861342e323520342e32352030203020302d312e3632352d312e3539356c2d31342e3939332d382e3738367a222066696c6c3d2223666666222f3e3c646566733e3c6c696e6561724772616469656e742069643d2242222078313d2230222079313d2230222078323d22323730222079323d2232373022206772616469656e74556e6974733d227573657253706163654f6e557365223e3c73746f702073746f702d636f6c6f723d2223636235656565222f3e3c73746f70206f66667365743d2231222073746f702d636f6c6f723d2223306364376534222073746f702d6f7061636974793d222e3939222f3e3c2f6c696e6561724772616469656e743e3c2f646566733e3c7465787420783d2233322e352220793d223233312220666f6e742d73697a653d223237222066696c6c3d22236666662220666f6e742d66616d696c793d22506c7573204a616b617274612053616e732c44656a6156752053616e732c4e6f746f20436f6c6f7220456d6f6a692c4170706c6520436f6c6f7220456d6f6a692c73616e732d73657269662220666f6e742d7765696768743d22626f6c64223e",
  "linkReferences": {},
  "deployedLinkReferences": {}
}